:020000040027D3
:10B000007CB5002640F63404DFF8B0531CE0A87885
:10B01000904204BF2A784D2A03D1687800F094F852
:10B0200006460021E9700AE0E86AA042F9D26B6A9C
:10B030001A54401C8842E86201D10520E870A878C3
:10B040009DF800104840A870684600F022FA0028D9
:10B050003BD0EB789DF80000A96A092B0246EED898
:10B06000DFE803F0080F141707061F22272CE6E776
:10B07000CDE7D9E7FE2AE2D10120E8700020E8629E
:10B08000DDE7A8620020A8700220D7E7287003201F
:10B09000D4E700296870D0D0FF2914BF042006200F
:10B0A000CCE7A8620720C9E701EB0221A9620820CA
:10B0B000C4E701EB0241A9620920BFE711EB02617D
:10B0C000A9620CBF05200420B8E7300018BF01209A
:10B0D00076BDF8B5BA4DBB4C296800948868B0F1CC
:10B0E000A53F29D10A69CB68B74E02209A426CEB82
:10B0F0000C0C002737604FEADC7C3760BCF1000F96
:10B10000B24F0CD1BB4204D3401E06E05B1C0028AA
:10B11000F8D193F800C0C6F804C09342F6D1706825
:10B1200032680B6842EA002292B2934204D10422B0
:10B130000831684600F075FB2A689068A04201D18A
:10B140000120F2BD0020F2BD2DE9F14F84B00020B6
:10B1500081469A4F9E4A029000269DF810007B6A15
:10B16000401E03281C461BD8DFE800F01B83B002FA
:10B170002021381D00F070FB0120207020716670C6
:10B180000820A071A072A670E6706671E671267242
:10B190006672E672267304F10D01786A091A02914B
:10B1A000A5E0201D1D785C7805EB04249D7804EB58
:10B1B0000545DC7805EB0468051D019504784578A4
:10B1C00004EB05248578C07804EB054404EB0064A7
:10B1D0000198091A591804EB0800B8F5001F0091EE
:10B1E000A0F1010B66D3934564D28C4262D3A8F5DB
:10B1F00000104FEAD02A09E0381D0121405D01FA14
:10B2000004F4391D04434C550AF1010AABF5001052
:10B21000C00A504512D34FEADA05381D0AF0070478
:10B22000405DE040C007EFD44FEACA2000F50010AF
:10B2300000F0EAFA0028DFD04FF00109009CC4F1C9
:10B24000040414F0030406D00198009BFF22214659
:10B25000184400F005FB009AA2185FEA090046D1E5
:10B26000002A44D00198414600F0DBFA00283ED085
:10B2700020E0201D19785C789D78DB7801EB0421B3
:10B2800001EB054101EB03610478437804EB0324EF
:10B29000051D8378C07804EB0344B1F5001F04EB6F
:10B2A000006407D36018401E90423CBF40F6350052
:10B2B000844202D34FF0010919E014B36018401E14
:10B2C0000078FF2808BF641EF7D01AE03C4D3D4CC3
:10B2D0002868009400F108010422684600F0A1FAF1
:10B2E00028688168A1420CBF01264FF00709029A25
:10B2F0009DF81000494600F00DF8304605B0BDE855
:10B30000F08F2246284600F0DFFA786A2D1A651978
:10B310000295ECE77FB5144600228DF80020FE254B
:10B32000631C8DF8045001AAFF2B32BF5370FF2518
:10B3300055704D258DF8065040F08000FF2B8DF89C
:10B34000070002AD0AD313711D0C8DF80A50180ABC
:10B350001B0E8DF809008DF80B3003AD05F8011BAD
:10B3600001A82D1A012006E09DF80010135C594039
:10B370008DF80010401CA842F6D3104E716A0020D0
:10B3800006E09DF800200B5C5A408DF80020401C20
:10B39000A042F6D3294601A800F053F80028F9D0BE
:10B3A0002CB1706A214600F04CF80028F9D0012138
:10B3B000684600F046F80028F9D07FBD0040002024
:10B3C0003040002005A0A00514700D401C01200095
:10B3D00000B0270038B5002000F0EEFA4FF40070FE
:10B3E00000F00AFB3E4C3F4D204600F073FB41F657
:10B3F000FF71204600F0A0FB0121204600F0A3FBD6
:10B4000000220221284600F0A3FB0221284600F07A
:10B4100045FD354A0121284600F0CEFB0121284692
:10B4200000F03AFD00F0B2FA014660234FF4E13239
:10B43000204600F017FB2046BDE8324000F03DBB3F
:10B4400034E0F8B50C4629490A684B6840F63206E4
:10B45000934208BF324604D09A423ABFF51A5219B5
:10B46000D21AA24201D20020F2BD0022204D06E0F5
:10B47000875CEF545B1CB34228BF0023521CA242DE
:10B48000F6D34B6000F012F82046F2BD144800F0ED
:10B4900032BB38B50446124D284600F02CFB20B1D3
:10B4A000284600F031FB2070012032BDF8B540F68F
:10B4B00032040B4D0E4E0D4F06E03868401C3860CC
:10B4C000A04224BF0020386038687968884205D0DF
:10B4D000315C284600F022FB0028EED1F1BD0000CF
:10B4E00000C0004000900D4000410D409C500020E5
:04B4F0006848002088
:10B800000008002081C0270038B5124A146854236C
:10B810004FF400611A689047FFE700F00CF82846E3
:10B8200032BD70B50B4B1C6858252E68B04700F030
:10B8300002F8284670BD054604F00C00FFE70549F4
:10B840000A681306FCD422F00C021043086070470B
:10B850000000000008300D40002200F005B8000094
:10B8600062F30F2262F31F42401810F0030308D066
:10B87000C91A1FD3DB0748BF00F8012D28BF20F8E5
:10B88000022D130030B414461546103928BF20E9A4
:10B890003C00FAD8490728BF20E90C0048BF40F80F
:10B8A000042D890028BF20F8022D48BF00F8012D83
:10B8B00030BC7047C91818BF00F8012DCB0728BF4E
:10B8C00000F8012D7047000062B38B0708D0521EAC
:10B8D00011F8013B00F8013B00F024808B07F6D102
:10B8E000830740F0208000BF103A07D330B4B1E89E
:10B8F0003810103AA0E83810F9D230BC530724BFF2
:10B90000B1E80810A0E8081044BF51F8043B40F823
:10B91000043BD20724BF31F8022B20F8022B44BF8E
:10B920000B7803707047083A07D3B1E80810083A5B
:10B9300040F8043B40F804CBF7D25307E4E700009B
:10B9400070B50B00354D03D12B6843F400132B6009
:10B950002C68334B1C4008B944F08074002914BF94
:10B960004FF480360026344322432A604FF6FF749A
:10B97000686800F48030864218BF002C05D0102083
:10B9800000F032F86868641EF3E770BD254801686E
:10B99000002001F0070107290DD8DFE801F00405B8
:10B9A000060708090A0B0FE010E011E012E013E0AF
:10B9B00014E015E01C48704718490A6822F4E06258
:10B9C00042EA00220A6070471848704718487047DA
:10B9D000184870471848704718487047184870470B
:10B9E00018487047000000000138FDD170477047CB
:10B9F000154908200860FEE710B50FF25001FFE777
:10BA0000C0F3032251F822200124136800F00F0034
:10BA100004FA00F01843106010BD000000200D4033
:10BA2000F8FFFEFE04200D4090D003000048E8011E
:10BA30000024F40000127A0000093D0080841E00FA
:10BA400040420F0020A1070074200D4008200D4047
:10BA500018200D4028200D4038200D4048200D4072
:10BA6000A8200D40F8B504460E4617461D4600F0C6
:10BA700031F8B6EB071F04F1300005D2016841F040
:10BA8000200101607F0803E0026822F020020260CA
:10BA9000F600B6FBF7F0401C400804F124028109CF
:10BAA000116000F03F0004F12801086004F12C004F
:10BAB0000560002044F8180FF1BD00F12C010A6860
:10BAC00042F010020A6040F2013150F8303F0B435F
:10BAD0000360704700F118010A681307FCD400F1F5
:10BAE0002C010A6822F010020A6050F8303F114918
:10BAF0000B4003607047183000680009FFE700F052
:10BB0000010080F00100704700F118010A68D306B7
:10BB100001D4006870474FF0FF30704710B500F156
:10BB2000180213689C0602D40160012010BD002099
:10BB300010BD0000FEFCFFFF50F8382FFFE722EA9F
:10BB400001010160704700F6C87001607047000095
:10BB5000F0B500230FF280240FF29C250FF2B826D7
:10BB60000FF2D42721FA03FC5FEACC7C20D5DFF862
:10BB7000D0E170450CD0DFF8CCE170450BD0DFF898
:10BB8000C8E170450AD0DFF8C4E1704509D00BE088
:10BB900054F823C00AE055F823C007E056F823C044
:10BBA00004E057F823C001E0DFF8A4C1CCF800207E
:10BBB0005B1C082BD6D3F0BD10B50023DFF8804105
:10BBC000A0420CD0DFF87C41A04224D0DFF87841BD
:10BBD000A04240D0DFF87441A0425CD07AE0022954
:10BBE00008BF012376D0042908BF022372D0082998
:10BBF00008BF03236ED0102908BF04236AD0202970
:10BC000008BF052366D0402908BF062362D08029DB
:10BC100060D107235EE0012908BF08235AD002291A
:10BC200008BF092356D0042908BF0A2352D0082987
:10BC300008BF0B234ED0102908BF0C234AD020295F
:10BC400008BF0D2346D0402908BF0E2342D08029CB
:10BC500040D10F233EE0012908BF10233AD002292A
:10BC600008BF112336D0042908BF122332D0082977
:10BC700008BF13232ED0102908BF14232AD020294F
:10BC800008BF152326D0402908BF162322D08029BB
:10BC900020D117231EE0012908BF18231AD002293A
:10BCA00008BF192316D0042908BF1A2312D0082967
:10BCB00008BF1B230ED0102908BF1C230AD020293F
:10BCC00008BF1D2306D0402908BF1E2302D08029AB
:10BCD00008BF1F23136010BDF0B500230FF27804D6
:10BCE0000FF294050FF2B0060FF2CC0721FA03FC15
:10BCF0005FEACC7C20D5DFF848E070450CD0DFF857
:10BD000044E070450BD0DFF840E070450AD0DFF822
:10BD10003CE0704509D00BE054F823C00AE055F828
:10BD200023C007E056F823C004E057F823C001E021
:10BD3000DFF820C0CCF800205B1C082BD6D3F0BD68
:10BD400000900D4000A00D4000B00D4000C00D401F
:10BD500000400D4080400D4080400D4084400D402B
:10BD600088400D408C400D4090400D4094400D4067
:10BD700098400D409C400D40A0400D40A4400D4017
:10BD8000A8400D40AC400D40B0400D40B4400D40C7
:10BD9000B8400D40BC400D40C0400D40C4400D4077
:10BDA000C8400D40CC400D40D0400D40D4400D4027
:10BDB000D8400D40DC400D40E0400D40E4400D40D7
:10BDC000E8400D40EC400D40F0400D40F4400D4087
:10BDD000F8400D40FC400D4000400D4004400D4037
:10BDE00008400D400C400D4010400D4014400D40E7
:10BDF00018400D401C400D4020400D4024400D4097
:10BE000028400D402C400D4030400D4034400D4046
:10BE100038400D403C400D4040400D4044400D40F6
:10BE200048400D404C400D4050400D4054400D40A6
:10BE300058400D405C400D4060400D4064400D4056
:10BE400068400D406C400D4070400D4074400D4006
:10BE500078400D407C400D4030B5CB4300F5806408
:10BE6000D50725684CBF0D431D40256000F5846053
:10BE7000920747BF0268114301681940016030BD55
:10BE800004460D460222FFF7E7FF29462046BDE89B
:10BE900038400022FFF720BF38B5F1E738B5044637
:10BEA0000D460222FFF7D8FF29462046BDE838405C
:10BEB0000822FFF711BF000010B56FF07F44204645
:10BEC000441E20B1FFF7E2FA0028F8D0012010BD8F
:10BED00010B500F035F816490820086000F038F871
:10BEE000FFF778FAFFF7E8FF10B9FFF7F2F850B95B
:10BEF000FFF7A6FAFFF784F80028F9D00D4CFFF7FA
:10BF00009FFA641EFBD10C480168486900F004F8F0
:10BF1000BDE81040FFF76CBD01B40849086001BCE2
:10BF2000D0F800D04FF0FF3E406800477047000057
:10BF300008300D40444404003040002008ED00E08B
:10BF400080B500F015F800B10120C0B202BD0000BC
:10BF500080B50122C0210548FFF7BEFEBDE80840BC
:10BF6000002200210120FFF7EBBC000000C00D40C3
:10BF7000EFF3108072B6704719E050F8042BD30726
:10BF800044BFA9F101039A18091F0023042942F8AC
:10BF9000043BF9D25FEA817C134604D54FF0000CD4
:10BFA000A2F800C09B1CC90744BF0021197050F8BB
:10BFB000041B0029E1D1704730B50168846842183C
:10BFC000416802EB5103C9070BD54C4409E012F953
:10BFD000011B12F8015B002904F8015B05D5491C1F
:10BFE000F9D19A42F3D10C3030BD491EF1D5F8E7B2
:10BFF00010B5074979441831064C7C44163404E0E6
:10C000000A68081D114488470146A142F8D110BDB5
:10C01000080000002400000061FFFFFF7010000016
:10C02000344000200000000091FFFFFF600000008E
:10C030001C0000000040002000F00DF8002801D096
:10C04000FFF7D6FFAFF300800020AFF30080FFF7CB
:10C050003FFF00F002F80120704700F001B8000037
:10C060000746384600F002F8FBE7000080B5AFF362
:10C070000080024A11001820ABBEFBE72600020038
:10C08000AFF30080AFF30080FFF7D6FFDC0003348E
:0AC09000400020F800031C0120000E
:0CFFD400000000000000000000B8270042
:040000050027C0818F
:00000001FF
